:1000000029C0000044C0000042C0000040C0000001
:1000100007C60000ADC500003AC0000038C00000AF
:1000200036C0000034C0000064C5000004C50000F4
:10003000F0C00000C4C700002AC0000028C00000B3
:1000400026C0000024C0000022C0000020C0000024
:100050001EC0000011241FBECFE5D8E0DEBFCDBF1B
:1000600010E0A0E6B0E0EEECFFE102C005900D92DA
:10007000A63CB107D9F720E0A6ECB0E001C01D9284
:10008000AB3DB207E1F70E94E20A0C94E50FB8CF4E
:10009000CF93DF9300D0CDB7DEB789836A838981A0
:1000A000882F90E0009719F00197B9F02CC041E03B
:1000B00065E081E0C4D740E066E081E0C0D741E080
:1000C00067E081E0BCD78DE290E02DE230E0F901FD
:1000D00020812061FC01208316C040E065E081E0C2
:1000E000AED741E066E081E0AAD740E067E081E07A
:1000F000A6D78DE290E02DE230E0F90120812F7E3D
:10010000FC01208300008A81823051F48DE290E06E
:100110002DE230E0F90120812068FC01208309C034
:100120008DE290E02DE230E0F90120812F77FC0193
:1001300020838DE290E02DE230E0F90120812F7DD7
:10014000FC0120838DE290E02DE230E0F901208176
:100150002860FC0120838DE290E02DE230E0F9017F
:1001600020812460FC0120838DE290E02DE230E0CC
:10017000F90120812160FC0120838DE290E02DE2D5
:1001800030E0F90120812D7FFC0120838EE290E098
:100190002EE230E0F90120812E7FFC0120838DE2E8
:1001A00090E02DE230E0F90120812064FC01208301
:1001B00000000F900F90DF91CF910895CF93DF93C0
:1001C00000D0CDB7DEB79A8389838FE290E0298192
:1001D0003A81F9012081FC01208300008EE290E049
:1001E000FC018081881F8827881F882F90E08170FC
:1001F0009927892B99F38FE290E0FC012081898176
:100200009A81FC01208300000F900F90DF91CF9125
:1002100008951F920F9200905F000F9211242F9368
:100220003F934F935F936F937F938F939F93AF937E
:10023000BF93EF93FF93CF93DF93CDB7DEB780915A
:10024000C6009091C700892B31F08091C600909133
:10025000C700FC0109950000DF91CF91FF91EF915C
:10026000BF91AF919F918F917F916F915F914F91CE
:100270003F912F910F9000925F000F901F90189563
:100280000F93CF93DF9300D000D01F92CDB7DEB78E
:1002900089836A834B832C830D838981882F90E027
:1002A00082309105E9F1833091051CF4019741F00A
:1002B00065C083309105E1F0049709F448C05EC041
:1002C00083E590E023E530E0F90120812F7BFC01FC
:1002D000208383E590E023E530E0F9012081277F4A
:1002E000FC0120838CE590E02A81FC01208358C02A
:1002F00083E590E023E530E0F90120812F7BFC01CC
:10030000208383E590E023E530E0F9012081286037
:10031000FC0120838CE590E02A81FC01208340C011
:1003200041E063E081E08BD683E590E023E530E0B7
:10033000F90120812064FC01208383E590E023E51E
:1003400030E0F9012081277FFC01208329C041E0B2
:1003500063E081E074D683E590E023E530E0F901C5
:1003600020812064FC01208383E590E023E530E0D8
:10037000F90120812860FC01208312C083E590E010
:1003800023E530E0F90120812F7BFC01208383E508
:1003900090E023E530E0F9012081277FFC012083F4
:1003A0008B81882F90E08230910519F0039759F0E6
:1003B00014C089E590E029E530E0F9012081226050
:1003C000FC01208313C089E590E029E530E0F901C4
:1003D00020812D7FFC01208309C089E590E029E57B
:1003E00030E0F90120812260FC0120838C81882F7C
:1003F00090E0009719F0019759F014C089E590E05A
:1004000029E530E0F90120812160FC01208313C03F
:1004100089E590E029E530E0F90120812E7FFC019B
:10042000208309C089E590E029E530E0F9012081C9
:100430002160FC0120838981823019F08981843018
:1004400091F483E590E023E530E0F90120812F7EEF
:10045000FC01208383E590E023E530E0F901208171
:100460002062FC0120838D81882F90E083309105EC
:1004700009F448C0843091052CF4009759F0019795
:1004800029F194C08530910509F458C0069709F404
:1004900071C08CC083E590E023E530E0F901208154
:1004A0002160FC01208383E590E023E530E0F90141
:1004B00020812D7FFC01208383E590E023E530E05F
:1004C000F90120812B7FFC0120838BC083E590E024
:1004D00023E530E0F90120812E7FFC01208383E5B4
:1004E00090E023E530E0F90120812260FC012083C7
:1004F00083E590E023E530E0F90120812B7FFC01CA
:1005000020836FC083E590E023E530E0F90120818E
:100510002160FC01208383E590E023E530E0F901D0
:1005200020812260FC01208383E590E023E530E018
:10053000F90120812B7FFC01208353C083E590E0EB
:1005400023E530E0F90120812E7FFC01208383E543
:1005500090E023E530E0F90120812D7FFC0120832C
:1005600083E590E023E530E0F90120812460FC017F
:10057000208337C083E590E023E530E0F901208156
:100580002160FC01208383E590E023E530E0F90160
:1005900020812D7FFC01208383E590E023E530E07E
:1005A000F90120812460FC0120831BC083E590E0D9
:1005B00023E530E0F90120812E7FFC01208383E5D3
:1005C00090E023E530E0F90120812D7FFC012083BC
:1005D00083E590E023E530E0F90120812B7FFC01E9
:1005E000208382E590E0FC01108200000F900F90C4
:1005F0000F900F900F90DF91CF910F9108950F936F
:10060000CF93DF9300D000D01F92CDB7DEB78983A0
:100610006A834B832C830D838981882F90E08230FD
:100620009105E9F1833091051CF4019741F05DC01B
:1006300083309105E1F0049709F444C056C085E485
:1006400090E025E430E0F9012081277FFC01208340
:1006500085E490E025E430E0F90120812F7BFC0166
:10066000208383E490E02A81FC01208350C085E44C
:1006700090E025E430E0F9012081277FFC01208310
:1006800085E490E025E430E0F90120812064FC015C
:10069000208383E490E02A81FC01208338C085E434
:1006A00090E025E430E0F90120812860FC012083FE
:1006B00085E490E025E430E0F90120812F7BFC0106
:1006C000208325C085E490E025E430E0F901208115
:1006D0002860FC01208385E490E025E430E0F90106
:1006E00020812064FC01208312C085E490E025E491
:1006F00030E0F9012081277FFC01208385E490E030
:1007000025E430E0F90120812F7BFC0120838B81DF
:10071000882F90E08230910519F0039759F014C0AA
:1007200089E590E029E530E0F90120812068FC01AD
:10073000208313C089E590E029E530E0F9012081AC
:100740002F77FC01208309C089E590E029E530E09E
:10075000F90120812F77FC0120838C81882F90E084
:10076000009719F0019759F014C089E590E029E548
:1007700030E0F90120812064FC01208313C089E569
:1007800090E029E530E0F90120812F7BFC012083F6
:1007900009C089E590E029E530E0F90120812F7B4F
:1007A000FC0120838981823019F08981843091F4A1
:1007B00083E590E023E530E0F90120812F7EFC0104
:1007C000208383E590E023E530E0F9012081206279
:1007D000FC0120838D81882F90E08230910509F4FF
:1007E0004CC0833091052CF4009779F0019749F1C2
:1007F000B4C08530910509F478C08630910509F4BC
:1008000090C0039709F455C0A8C085E490E025E4A2
:1008100030E0F90120812B7FFC01208385E490E00A
:1008200025E430E0F90120812D7FFC01208385E45F
:1008300090E025E430E0F90120812160FC01208373
:10084000A7C085E490E025E430E0F90120812B7F0A
:10085000FC01208385E490E025E430E0F90120816B
:100860002260FC01208385E490E025E430E0F9017A
:1008700020812E7FFC0120838BC085E490E025E45D
:1008800030E0F90120812B7FFC01208385E490E09A
:1008900025E430E0F90120812260FC01208385E419
:1008A00090E025E430E0F90120812160FC01208303
:1008B0006FC085E490E025E430E0F90120812460F8
:1008C000FC01208385E490E025E430E0F9012081FB
:1008D0002D7FFC01208385E490E025E430E0F901E0
:1008E00020812E7FFC01208353C085E490E025E425
:1008F00030E0F90120812460FC01208385E490E050
:1009000025E430E0F90120812260FC01208385E4A8
:1009100090E025E430E0F90120812E7FFC01208366
:1009200037C085E490E025E430E0F90120812460BF
:10093000FC01208385E490E025E430E0F90120818A
:100940002260FC01208385E490E025E430E0F90199
:1009500020812160FC0120831BC085E490E025E418
:1009600030E0F90120812B7FFC01208385E490E0B9
:1009700025E430E0F90120812D7FFC01208385E40E
:1009800090E025E430E0F90120812E7FFC012083F6
:1009900000000F900F900F900F900F90DF91CF916C
:1009A0000F910895CF93DF9300D01F92CDB7DEB79C
:1009B0008A836B838B81282F30E040E050E08FEFFB
:1009C00090E0DC010E94CC0FDC01CB0124E630E09A
:1009D00040E050E0BC01CD010E94AA0FDA01C9013C
:1009E00089838A81882F90E08130910561F082307F
:1009F0009105A1F0892B09F017C08CE590E02981C1
:100A0000FC01208311C08AE490E02981FC0120834D
:100A100088E490E02981FC01208306C083E490E013
:100A20002981FC012083000000000F900F900F909F
:100A3000DF91CF9108951F920F9200905F000F9267
:100A400011240F932F933F934F935F936F937F9353
:100A50008F939F93AF93BF93EF93FF93CF93DF93C6
:100A6000CDB7DEB78091C8009091C900A091CA00AF
:100A7000B091CB000197A109B1098093C800909370
:100A8000C900A093CA00B093CB008091D40090918C
:100A9000D500892BC1F08091C8009091C900A09128
:100AA000CA00B091CB00892B8A2B8B2B61F400E01C
:100AB00021E043E060E081E0E3DB8091D4009091AD
:100AC000D500FC0109950000DF91CF91FF91EF91D6
:100AD000BF91AF919F918F917F916F915F914F9156
:100AE0003F912F910F910F9000925F000F901F90F8
:100AF00018951F920F9200905F000F9211240F9390
:100B00002F933F934F935F936F937F938F939F9315
:100B1000AF93BF93EF93FF93CF93DF93CDB7DEB740
:100B20008091D0009091D100892B61F000E021E00C
:100B300043E060E081E0A4DB8091D0009091D1009F
:100B4000FC0109950000DF91CF91FF91EF91BF91DA
:100B5000AF919F918F917F916F915F914F913F9155
:100B60002F910F910F9000925F000F901F9018959A
:100B70001F920F9200905F000F9211240F932F93FA
:100B80003F934F935F936F937F938F939F93AF9315
:100B9000BF93EF93FF93CF93DF93CDB7DEB78091F1
:100BA000CC009091CD00A091CE00B091CF000197E4
:100BB000A109B1098093CC009093CD00A093CE0001
:100BC000B093CF008091D6009091D700892B91F0FF
:100BD0008091CC009091CD00A091CE00B091CF003B
:100BE000892B8A2B8B2B31F400E021E043E060E07D
:100BF00081E005DD0000DF91CF91FF91EF91BF9182
:100C0000AF919F918F917F916F915F914F913F91A4
:100C10002F910F910F9000925F000F901F901895E9
:100C20001F920F9200905F000F9211240F932F9349
:100C30003F934F935F936F937F938F939F93AF9364
:100C4000BF93EF93FF93CF93DF93CDB7DEB7809140
:100C5000D2009091D300892B61F08091D2009091C5
:100C6000D300FC01099500E021E043E060E081E071
:100C7000C6DC0000DF91CF91FF91EF91BF91AF9162
:100C80009F918F917F916F915F914F913F912F91A4
:100C90000F910F9000925F000F901F901895CF93C7
:100CA000DF9300D01F92CDB7DEB789836A834B8371
:100CB00089E290E023E3FC0120838BE290E02BE2C9
:100CC00030E0F90120812D7FFC0120838981882F6C
:100CD00090E081309105C1F08230910541F1892B7E
:100CE000C9F58AE290E02AE230E0F9012081206132
:100CF000FC0120838AE290E02AE230E0F9012081C1
:100D00002860FC01208339C08AE290E02AE230E0CA
:100D1000F90120812F7EFC0120838AE290E02AE203
:100D200030E0F90120812860FC01208326C08AE29E
:100D300090E02AE230E0F90120812061FC0120836B
:100D40008AE290E02AE230E0F9012081277FFC016D
:100D5000208313C08AE290E02AE230E0F90120818A
:100D60002F7EFC0120838AE290E02AE230E0F90144
:100D70002081277FFC01208300008A81882F90E05A
:100D80008630910519F00797A1F01DC08AE290E026
:100D90002AE230E0F90120812068FC0120838FE500
:100DA00090E02FE530E0F90120812068FC012083EC
:100DB00014C08AE290E02AE230E0F90120812F7726
:100DC000FC0120830AC08AE290E02AE230E0F901C7
:100DD00020812F77FC01208300008B81882F90E0F9
:100DE0008430910519F00597A1F01DC08AE290E0CA
:100DF0002AE230E0F90120812064FC0120838FE5A4
:100E000090E02FE530E0F90120812068FC0120838B
:100E100014C08AE290E02AE230E0F90120812F7BC1
:100E2000FC0120830AC08AE290E02AE230E0F90166
:100E300020812F7BFC012083000080E490E020E4EF
:100E400030E0F90120812068FC01208380E490E0FB
:100E500020E430E0F90120812F7DFC01208380E433
:100E600090E020E430E0F90120812F7EFC01208316
:100E70008AE290E02AE230E0F90120812B7FFC0138
:100E8000208380E490E020E430E0F90120812460B8
:100E9000FC01208380E490E020E430E0F90120812F
:100EA0002260FC01208380E490E020E430E0F9013E
:100EB00020812860FC01208380E490E020E430E081
:100EC000F90120812E7FFC01208300000F900F90FC
:100ED0000F90DF91CF910895CF93DF9300D01F92B1
:100EE000CDB7DEB789837B836A8389818330B9F488
:100EF00000008BE290E0FC018081881F8827881F1A
:100F0000882F90E081709927892B99F38CE290E0EB
:100F1000FC0120818A819B81FC01208319C0898189
:100F20008230B1F400008BE290E0FC018081829578
:100F300086958770882F90E081709927892B99F387
:100F40008CE290E02A813B81F9012081FC01208321
:100F500000000F900F900F90DF91CF910895CF93E5
:100F6000DF9300D0CDB7DEB79A83898389819A81D8
:100F70009C012F5F3F4F3A832983BC0182E0ACDFA5
:100F800089819A81FC018081882381F700000F907C
:100F90000F90DF91CF910895CF93DF9300D0CDB71D
:100FA000DEB79A83898389819A819093D90080934F
:100FB000D80000000F900F90DF91CF9108951F92FD
:100FC0000F9200905F000F9211242F933F934F9345
:100FD0005F936F937F938F939F93AF93BF93EF93A1
:100FE000FF93CF93DF931F92CDB7DEB78CE290E0F3
:100FF000FC01808189838091D8009091D900892B50
:1010000041F02091D8003091D900CE010196F9012C
:10101000099500000F90DF91CF91FF91EF91BF9163
:10102000AF919F918F917F916F915F914F913F9180
:101030002F910F9000925F000F901F901895CF9303
:10104000DF9300D01F92CDB7DEB789836A834B83CD
:101050008B81882309F06CC08981882F90E08130D2
:10106000910519F1823091051CF4892B41F0CBC018
:101070008230910581F1039709F443C0C4C08AE32B
:1010800090E02AE330E0F9012081622F2A81422F8B
:1010900050E021E030E002C0220F331F4A95E2F712
:1010A00020952623FC012083AEC087E390E027E350
:1010B00030E0F9012081622F2A81422F50E021E0A7
:1010C00030E002C0220F331F4A95E2F72095262315
:1010D000FC01208398C084E390E024E330E0F90130
:1010E0002081622F2A81422F50E021E030E002C0AF
:1010F000220F331F4A95E2F720952623FC01208317
:1011000082C081E390E021E330E0F9012081622F89
:101110002A81422F50E021E030E002C0220F331F2D
:101120004A95E2F720952623FC01208300006BC03E
:101130008B81813009F067C08981882F90E08130F0
:10114000910511F1823091051CF4892B41F05BC0AF
:101150008230910571F1039709F440C054C08AE3CD
:1011600090E02AE330E0F9012081622F2A81422FAA
:1011700050E021E030E002C0220F331F4A95E2F731
:10118000262BFC0120833FC087E390E027E330E07B
:10119000F9012081622F2A81422F50E021E030E0C6
:1011A00002C0220F331F4A95E2F7262BFC01208351
:1011B0002AC084E390E024E330E0F9012081622F2B
:1011C0002A81422F50E021E030E002C0220F331F7D
:1011D0004A95E2F7262BFC01208315C081E390E0BD
:1011E00021E330E0F9012081622F2A81422F50E073
:1011F00021E030E002C0220F331F4A95E2F7262B90
:10120000FC012083000000000F900F900F90DF91F1
:10121000CF910895CF93DF9300D01F92CDB7DEB763
:1012200089836A834B838B81813009F068C089810F
:10123000882F90E08130910511F1823091051CF4E6
:10124000892B41F0CBC08230910571F1039709F4ED
:1012500040C0C4C08BE390E02BE330E0F901208173
:10126000622F2A81422F50E021E030E002C0220F9D
:10127000331F4A95E2F7262BFC012083AFC088E399
:1012800090E028E330E0F9012081622F2A81422F8B
:1012900050E021E030E002C0220F331F4A95E2F710
:1012A000262BFC0120839AC085E390E025E330E003
:1012B000F9012081622F2A81422F50E021E030E0A5
:1012C00002C0220F331F4A95E2F7262BFC01208330
:1012D00085C082E390E022E330E0F9012081622FB3
:1012E0002A81422F50E021E030E002C0220F331F5C
:1012F0004A95E2F7262BFC01208300006FC08B810A
:10130000882309F06BC08981882F90E08130910596
:1013100019F1823091051CF4892B41F05FC08230B5
:10132000910581F1039709F443C058C08BE390E025
:101330002BE330E0F9012081622F2A81422F50E017
:1013400021E030E002C0220F331F4A95E2F72095DA
:101350002623FC01208342C088E390E028E330E0AC
:10136000F9012081622F2A81422F50E021E030E0F4
:1013700002C0220F331F4A95E2F720952623FC0175
:1013800020832CC085E390E025E330E0F901208143
:10139000622F2A81422F50E021E030E002C0220F6C
:1013A000331F4A95E2F720952623FC01208316C0BF
:1013B00082E390E022E330E0F9012081622F2A816C
:1013C000422F50E021E030E002C0220F331F4A9547
:1013D000E2F720952623FC012083000000000F90F7
:1013E0000F900F90DF91CF910895CF93DF9300D0AE
:1013F000CDB7DEB789836A838981882F90E08130F9
:10140000910511F1823091051CF4892B41F05BC0EC
:101410008230910571F1039709F440C054C08BE309
:1014200090E02BE330E0F9012081622F2A81422FE6
:1014300050E021E030E002C0220F331F4A95E2F76E
:101440002627FC0120833FC088E390E028E330E0BA
:10145000F9012081622F2A81422F50E021E030E003
:1014600002C0220F331F4A95E2F72627FC01208392
:101470002AC085E390E025E330E0F9012081622F66
:101480002A81422F50E021E030E002C0220F331FBA
:101490004A95E2F72627FC01208315C082E390E0FD
:1014A00022E330E0F9012081622F2A81422F50E0AF
:1014B00021E030E002C0220F331F4A95E2F72627D1
:1014C000FC012083000000000F900F90DF91CF916E
:1014D0000895CF93DF9300D000D0CDB7DEB78983D6
:1014E0006A835C834B838981882F90E081309105EA
:1014F00011F1823091051CF4892B41F05BC08230E0
:10150000910571F1039709F440C054C089E390E05C
:10151000FC018081882F90E02A81222F30E002C0D8
:10152000959587952A95E2F7282F21708B819C81CC
:10153000FC0120833FC086E390E0FC018081882F7E
:1015400090E02A81222F30E002C0959587952A9558
:10155000E2F7282F21708B819C81FC0120832AC017
:1015600083E390E0FC018081882F90E02A81222F84
:1015700030E002C0959587952A95E2F7282F2170D3
:101580008B819C81FC01208315C080E390E0FC01ED
:101590008081882F90E02A81222F30E002C095952B
:1015A00087952A95E2F7282F21708B819C81FC0179
:1015B0002083000000000F900F900F900F90DF919C
:1015C000CF910895CF93DF93CDB7DEB74BD04BD4F7
:1015D00084D363E081E024D380E690E052D363E0DB
:1015E00082E01ED38CE690E04CD360E083E018D319
:1015F00088E790E046D300008091DA008823E1F389
:101600008091DA00813311F405D001C019D0109215
:10161000DA00DDCFCF93DF93CDB7DEB75ED362E0E4
:1016200081E0FED281E03BD489E890E02AD30FD458
:10163000000069D38823E9F70000DF91CF91089576
:10164000CF93DF93CDB7DEB748D362E081E0E8D235
:1016500080E025D486E990E014D371D30000DF91B7
:10166000CF910895CF93DF93CDB7DEB72FD007D4B6
:101670005AD3DCD33CD3AFD345E066E080E00FDB48
:1016800087E49BE089DC0000DF91CF910895CF9340
:10169000DF9300D0CDB7DEB79A83898383EA90E0E9
:1016A0005EDC89819A81BC0182E016DC89819A81A5
:1016B000FC018081A0D38093DA0080EB90E04FDCC6
:1016C00000000F900F90DF91CF910895CF93DF939B
:1016D000CDB7DEB728970FB6F894DEBF0FBECDBFEB
:1016E00041E061E082E0ABDC41E060E082E0A7DC69
:1016F00041E062E082E0A3DC40E062E082E08ADD7B
:1017000041E063E082E09BDC41E064E082E097DC62
:1017100041E065E082E093DC41E066E082E08FDC5E
:1017200019821A821B821C8224C01D821E821F8283
:1017300018860BC08D819E81AF81B8850196A11D51
:10174000B11D8D839E83AF83B8878D819E81AF81CC
:10175000B8858F3F9105A105B10560F389819A8114
:10176000AB81BC810196A11DB11D89839A83AB8396
:10177000BC8389819A81AB81BC810A97A105B1059F
:10178000A0F282E010D088E20ED08CE00CD086E08F
:101790000AD0000028960FB6F894DEBF0FBECDBF6A
:1017A000DF91CF910895CF93DF93CDB7DEB76D97DB
:1017B0000FB6F894DEBF0FBECDBF8D8F40E061E065
:1017C00082E028DD40E060E082E024DD8D8D8295BE
:1017D0008F708170482F63E082E01CDD8D8D8295D3
:1017E000869587708170482F64E082E013DD8D8DCF
:1017F00082958695869583708170482F65E082E09A
:1018000009DD8D8D881F8827881F482F66E082E0BC
:1018100001DD41E062E082E0FDDC19821A821B8278
:101820001C8224C01D821E821F8218860BC08D81DF
:101830009E81AF81B8850196A11DB11D8D839E83C8
:10184000AF83B8878D819E81AF81B8858F3F910529
:10185000A105B10560F389819A81AB81BC810196B4
:10186000A11DB11D89839A83AB83BC8389819A8131
:10187000AB81BC81892B8A2B8B2BA1F240E062E0EB
:1018800082E0C8DC19861A861B861C8624C01D8649
:101890001E861F86188A0BC08D859E85AF85B889E8
:1018A0000196A11DB11D8D879E87AF87B88B8D8551
:1018B0009E85AF85B8898F3F9105A105B10560F37D
:1018C00089859A85AB85BC850196A11DB11D898747
:1018D0009A87AB87BC8789859A85AB85BC850C9731
:1018E000A105B105A0F28D8D8170482F63E082E0E3
:1018F00091DC8D8D86958170482F64E082E08ADCD2
:101900008D8D869586958170482F65E082E082DC1A
:101910008D8D8695869586958170482F66E082E04C
:1019200079DC41E062E082E075DC198A1A8A1B8A60
:101930001C8A24C01D8A1E8A1F8A188E0BC08D899E
:101940009E89AF89B88D0196A11DB11D8D8B9E8B8F
:10195000AF8BB88F8D899E89AF89B88D8F3F9105E8
:10196000A105B10560F389899A89AB89BC89019683
:10197000A11DB11D898B9A8BAB8BBC8B89899A89F0
:10198000AB89BC89892B8A2B8B2BA1F240E062E0CA
:1019900082E040DC198E1A8E1B8E1C8E0000000027
:1019A0006D960FB6F894DEBF0FBECDBFDF91CF911D
:1019B0000895CF93DF93CDB7DEB7A5970FB6F89410
:1019C000DEBF0FBECDBF8DA319821A821B821C827F
:1019D00024C01D821E821F8218860BC08D819E81AD
:1019E000AF81B8850196A11DB11D8D839E83AF8304
:1019F000B8878D819E81AF81B8858F3F9105A10504
:101A0000B10560F389819A81AB81BC810196A11DEA
:101A1000B11D89839A83AB83BC8389819A81AB8111
:101A2000BC810C97A105B105A0F241E061E082E024
:101A3000F1DB40E060E082E0EDDB8DA182958F700C
:101A40008170482F63E082E0E5DB8DA18295869569
:101A500087708170482F64E082E0DCDB8DA1829585
:101A60008695869583708170482F65E082E0D2DB91
:101A70008DA1881F8827881F482F66E082E0CADB77
:101A800041E062E082E0C6DB19861A861B861C866E
:101A900024C01D861E861F86188A0BC08D859E85D4
:101AA000AF85B8890196A11DB11D8D879E87AF872F
:101AB000B88B8D859E85AF85B8898F3F9105A1052F
:101AC000B10560F389859A85AB85BC850196A11D1A
:101AD000B11D89879A87AB87BC8789859A85AB8535
:101AE000BC85892B8A2B8B2BA1F240E062E082E03F
:101AF00091DB198A1A8A1B8A1C8A24C01D8A1E8AB5
:101B00001F8A188E0BC08D899E89AF89B88D01966A
:101B1000A11DB11D8D8B9E8BAF8BB88F8D899E893A
:101B2000AF89B88D8F3F9105A105B10560F3898913
:101B30009A89AB89BC890196A11DB11D898B9A8BAD
:101B4000AB8BBC8B89899A89AB89BC890C97A10521
:101B5000B105A0F28DA18170482F63E082E05ADBCD
:101B60008DA186958170482F64E082E053DB8DA1C2
:101B7000869586958170482F65E082E04BDB8DA1CC
:101B80008695869586958170482F66E082E042DBD7
:101B900041E062E082E03EDB198E1A8E1B8E1C8EC5
:101BA00024C01D8E1E8E1F8E18A20BC08D8D9E8D83
:101BB000AF8DB8A10196A11DB11D8D8F9E8FAF8FE6
:101BC000B8A38D8D9E8DAF8DB8A18F3F9105A105D6
:101BD000B10560F3898D9A8DAB8DBC8D0196A11DE9
:101BE000B11D898F9A8FAB8FBC8F898D9A8DAB8DEC
:101BF000BC8D892B8A2B8B2BA1F240E062E082E026
:101C000009DB19A21AA21BA21CA200000000A596C3
:101C10000FB6F894DEBF0FBECDBFDF91CF91089510
:101C2000CF93DF9300D01F92CDB7DEB78A836B834B
:101C30008A81882F90E08130910579F0823091057A
:101C40001CF4892B39F012C08230910549F00397BA
:101C500051F00CC080E8898309C080EC898306C0FC
:101C600080E9898303C080ED8983000099818B819D
:101C7000890F99DD00000F900F900F90DF91CF91A9
:101C80000895CF93DF9300D01F92CDB7DEB79B832B
:101C90008A8319820DC08981882F90E02A813B8137
:101CA000820F931FFC01808184DE89818F5F89838D
:101CB0008981882F90E02A813B81820F931FFC014C
:101CC0008081882319F08981803128F300000F90EA
:101CD0000F900F90DF91CF910895CF93DF93CDB701
:101CE000DEB781E060DD0000DF91CF910895CF93F2
:101CF000DF93CDB7DEB740E063E080E0A0D900001D
:101D0000DF91CF910895CF93DF931F92CDB7DEB7C8
:101D1000CE010196AC0163E080E0DBDB89810F90AE
:101D2000DF91CF910895CF93DF93CDB7DEB741E038
:101D300060E080E084D90000DF91CF910895CF93D7
:101D4000DF93CDB7DEB728970FB6F894DEBF0FBE8E
:101D5000CDBF60E080E049DB19821A821B821C82C1
:101D600024C01D821E821F8218860BC08D819E8119
:101D7000AF81B8850196A11DB11D8D839E83AF8370
:101D8000B8878D819E81AF81B8858F3F9105A10570
:101D9000B10560F389819A81AB81BC810196A11D57
:101DA000B11D89839A83AB83BC8389819A81AB817E
:101DB000BC818D379105A105B10598F260E080E006
:101DC00014DB000028960FB6F894DEBF0FBECDBF1F
:101DD000DF91CF910895CF93DF93CDB7DEB763E066
:101DE00081E00E94480041E064E080E028D90000E2
:101DF000DF91CF910895CF93DF931F92CDB7DEB7D8
:101E0000898341E064E080E005DACE0101960E941A
:101E1000DE0040E064E080E0FDD9CE0101960E9442
:101E2000DE0089810F90DF91CF9108950F93CF93BA
:101E3000DF93CDB7DEB703E021E043E06FEF84E04E
:101E40000E9440010000DF91CF910F910895CF9340
:101E5000DF93CDB7DEB762E680E00E94D2040000D7
:101E6000DF91CF910895CF93DF93CDB7DEB761E3D4
:101E700080E00E94D2040000DF91CF910895CF93BB
:101E8000DF93CDB7DEB741E062E080E0D8D841E033
:101E900061E080E0D4D80000DF91CF910895CF9326
:101EA000DF93CDB7DEB729970FB6F894DEBF0FBE2C
:101EB000CDBF89878985882311F082E001C081E048
:101EC00041E0682F80E0A6D919821A821B821C8209
:101ED00024C01D821E821F8218860BC08D819E81A8
:101EE000AF81B8850196A11DB11D8D839E83AF83FF
:101EF000B8878D819E81AF81B8858F3F9105A105FF
:101F0000B10560F389819A81AB81BC810196A11DE5
:101F1000B11D89839A83AB83BC8389819A81AB810C
:101F2000BC818A3F9105A105B10598F28985882376
:101F300011F082E001C081E040E0682F80E06AD9C2
:101F4000000029960FB6F894DEBF0FBECDBFDF911B
:101F5000CF910895A1E21A2EAA1BBB1BFD010DC053
:101F6000AA1FBB1FEE1FFF1FA217B307E407F50749
:101F700020F0A21BB30BE40BF50B661F771F881F25
:101F8000991F1A9469F760957095809590959B01BB
:101F9000AC01BD01CF01089509D0A59F900DB49F5C
:101FA000900DA49F800D911D11240895A29FB00152
:101FB000B39FC001A39F700D811D1124911DB29F7D
:0E1FC000700D811D1124911D0895F894FFCF1E
:101FCE002D2057454C434F4D45202D002D2D2D2DA9
:101FDE002D2D2D2D2D2D2D00506C656173652053EB
:101FEE0063616E204944203A004761746520204F9A
:101FFE0070656E656400496E76616C696420494453
:10200E002021004944205363616E6564203D200009
:10201E000D2D2D2D2D2D2D2D2D2D2D2D2D2D2D2D02
:06202E002D2D2D0D000018
:00000001FF
