:1000000029C0000044C0000042C0000040C0000001
:1000100005C60000ABC500003AC0000038C00000B3
:1000200036C0000034C0000062C5000002C50000F8
:10003000F0C00000C2C700002AC0000028C00000B5
:1000400026C0000024C0000022C0000020C0000024
:100050001EC0000011241FBECFE5D8E0DEBFCDBF1B
:1000600010E0A0E6B0E0EEEBF6E102C005900D92E4
:10007000A238B107D9F720E0A2E8B0E001C01D9294
:10008000A739B207E1F70E946C0A0C945D0BB8CF58
:10009000CF93DF9300D0CDB7DEB789836A838981A0
:1000A000882F90E0009719F00197B9F02CC041E03B
:1000B00065E081E0C2D740E066E081E0BED741E084
:1000C00067E081E0BAD78DE290E02DE230E0F901FF
:1000D00020812061FC01208316C040E065E081E0C2
:1000E000ACD741E066E081E0A8D740E067E081E07E
:1000F000A4D78DE290E02DE230E0F90120812F7E3F
:10010000FC01208300008A81823051F48DE290E06E
:100110002DE230E0F90120812068FC01208309C034
:100120008DE290E02DE230E0F90120812F77FC0193
:1001300020838DE290E02DE230E0F90120812F7DD7
:10014000FC0120838DE290E02DE230E0F901208176
:100150002860FC0120838DE290E02DE230E0F9017F
:1001600020812460FC0120838DE290E02DE230E0CC
:10017000F90120812160FC0120838DE290E02DE2D5
:1001800030E0F90120812D7FFC0120838EE290E098
:100190002EE230E0F90120812E7FFC0120838DE2E8
:1001A00090E02DE230E0F90120812064FC01208301
:1001B00000000F900F90DF91CF910895CF93DF93C0
:1001C00000D0CDB7DEB79A8389838FE290E0298192
:1001D0003A81F9012081FC01208300008EE290E049
:1001E000FC018081881F8827881F882F90E08170FC
:1001F0009927892B99F38FE290E0FC012081898176
:100200009A81FC01208300000F900F90DF91CF9125
:1002100008951F920F9200905F000F9211242F9368
:100220003F934F935F936F937F938F939F93AF937E
:10023000BF93EF93FF93CF93DF93CDB7DEB780915A
:10024000820090918300892B31F0809182009091FF
:100250008300FC0109950000DF91CF91FF91EF91A0
:10026000BF91AF919F918F917F916F915F914F91CE
:100270003F912F910F9000925F000F901F90189563
:100280000F93CF93DF9300D000D01F92CDB7DEB78E
:1002900089836A834B832C830D838981882F90E027
:1002A00082309105E9F1833091051CF4019741F00A
:1002B00065C083309105E1F0049709F448C05EC041
:1002C00083E590E023E530E0F90120812F7BFC01FC
:1002D000208383E590E023E530E0F9012081277F4A
:1002E000FC0120838CE590E02A81FC01208358C02A
:1002F00083E590E023E530E0F90120812F7BFC01CC
:10030000208383E590E023E530E0F9012081286037
:10031000FC0120838CE590E02A81FC01208340C011
:1003200041E063E081E089D683E590E023E530E0B9
:10033000F90120812064FC01208383E590E023E51E
:1003400030E0F9012081277FFC01208329C041E0B2
:1003500063E081E072D683E590E023E530E0F901C7
:1003600020812064FC01208383E590E023E530E0D8
:10037000F90120812860FC01208312C083E590E010
:1003800023E530E0F90120812F7BFC01208383E508
:1003900090E023E530E0F9012081277FFC012083F4
:1003A0008B81882F90E08230910519F0039759F0E6
:1003B00014C089E590E029E530E0F9012081226050
:1003C000FC01208313C089E590E029E530E0F901C4
:1003D00020812D7FFC01208309C089E590E029E57B
:1003E00030E0F90120812260FC0120838C81882F7C
:1003F00090E0009719F0019759F014C089E590E05A
:1004000029E530E0F90120812160FC01208313C03F
:1004100089E590E029E530E0F90120812E7FFC019B
:10042000208309C089E590E029E530E0F9012081C9
:100430002160FC0120838981823019F08981843018
:1004400091F483E590E023E530E0F90120812F7EEF
:10045000FC01208383E590E023E530E0F901208171
:100460002062FC0120838D81882F90E083309105EC
:1004700009F448C0843091052CF4009759F0019795
:1004800029F194C08530910509F458C0069709F404
:1004900071C08CC083E590E023E530E0F901208154
:1004A0002160FC01208383E590E023E530E0F90141
:1004B00020812D7FFC01208383E590E023E530E05F
:1004C000F90120812B7FFC0120838BC083E590E024
:1004D00023E530E0F90120812E7FFC01208383E5B4
:1004E00090E023E530E0F90120812260FC012083C7
:1004F00083E590E023E530E0F90120812B7FFC01CA
:1005000020836FC083E590E023E530E0F90120818E
:100510002160FC01208383E590E023E530E0F901D0
:1005200020812260FC01208383E590E023E530E018
:10053000F90120812B7FFC01208353C083E590E0EB
:1005400023E530E0F90120812E7FFC01208383E543
:1005500090E023E530E0F90120812D7FFC0120832C
:1005600083E590E023E530E0F90120812460FC017F
:10057000208337C083E590E023E530E0F901208156
:100580002160FC01208383E590E023E530E0F90160
:1005900020812D7FFC01208383E590E023E530E07E
:1005A000F90120812460FC0120831BC083E590E0D9
:1005B00023E530E0F90120812E7FFC01208383E5D3
:1005C00090E023E530E0F90120812D7FFC012083BC
:1005D00083E590E023E530E0F90120812B7FFC01E9
:1005E000208382E590E0FC01108200000F900F90C4
:1005F0000F900F900F90DF91CF910F9108950F936F
:10060000CF93DF9300D000D01F92CDB7DEB78983A0
:100610006A834B832C830D838981882F90E08230FD
:100620009105E9F1833091051CF4019741F05DC01B
:1006300083309105E1F0049709F444C056C085E485
:1006400090E025E430E0F9012081277FFC01208340
:1006500085E490E025E430E0F90120812F7BFC0166
:10066000208383E490E02A81FC01208350C085E44C
:1006700090E025E430E0F9012081277FFC01208310
:1006800085E490E025E430E0F90120812064FC015C
:10069000208383E490E02A81FC01208338C085E434
:1006A00090E025E430E0F90120812860FC012083FE
:1006B00085E490E025E430E0F90120812F7BFC0106
:1006C000208325C085E490E025E430E0F901208115
:1006D0002860FC01208385E490E025E430E0F90106
:1006E00020812064FC01208312C085E490E025E491
:1006F00030E0F9012081277FFC01208385E490E030
:1007000025E430E0F90120812F7BFC0120838B81DF
:10071000882F90E08230910519F0039759F014C0AA
:1007200089E590E029E530E0F90120812068FC01AD
:10073000208313C089E590E029E530E0F9012081AC
:100740002F77FC01208309C089E590E029E530E09E
:10075000F90120812F77FC0120838C81882F90E084
:10076000009719F0019759F014C089E590E029E548
:1007700030E0F90120812064FC01208313C089E569
:1007800090E029E530E0F90120812F7BFC012083F6
:1007900009C089E590E029E530E0F90120812F7B4F
:1007A000FC0120838981823019F08981843091F4A1
:1007B00083E590E023E530E0F90120812F7EFC0104
:1007C000208383E590E023E530E0F9012081206279
:1007D000FC0120838D81882F90E08230910509F4FF
:1007E0004CC0833091052CF4009779F0019749F1C2
:1007F000B4C08530910509F478C08630910509F4BC
:1008000090C0039709F455C0A8C085E490E025E4A2
:1008100030E0F90120812B7FFC01208385E490E00A
:1008200025E430E0F90120812D7FFC01208385E45F
:1008300090E025E430E0F90120812160FC01208373
:10084000A7C085E490E025E430E0F90120812B7F0A
:10085000FC01208385E490E025E430E0F90120816B
:100860002260FC01208385E490E025E430E0F9017A
:1008700020812E7FFC0120838BC085E490E025E45D
:1008800030E0F90120812B7FFC01208385E490E09A
:1008900025E430E0F90120812260FC01208385E419
:1008A00090E025E430E0F90120812160FC01208303
:1008B0006FC085E490E025E430E0F90120812460F8
:1008C000FC01208385E490E025E430E0F9012081FB
:1008D0002D7FFC01208385E490E025E430E0F901E0
:1008E00020812E7FFC01208353C085E490E025E425
:1008F00030E0F90120812460FC01208385E490E050
:1009000025E430E0F90120812260FC01208385E4A8
:1009100090E025E430E0F90120812E7FFC01208366
:1009200037C085E490E025E430E0F90120812460BF
:10093000FC01208385E490E025E430E0F90120818A
:100940002260FC01208385E490E025E430E0F90199
:1009500020812160FC0120831BC085E490E025E418
:1009600030E0F90120812B7FFC01208385E490E0B9
:1009700025E430E0F90120812D7FFC01208385E40E
:1009800090E025E430E0F90120812E7FFC012083F6
:1009900000000F900F900F900F900F90DF91CF916C
:1009A0000F910895CF93DF9300D01F92CDB7DEB79C
:1009B0008A836B838B81282F30E040E050E08FEFFB
:1009C00090E0DC0161D6DC01CB0124E630E040E0C0
:1009D00050E0BC01CD0136D6DA01C90189838A8194
:1009E000882F90E08130910561F082309105A1F06F
:1009F000892B09F017C08CE590E02981FC01208348
:100A000011C08AE490E02981FC01208388E490E011
:100A10002981FC01208306C083E490E02981FC0148
:100A20002083000000000F900F900F90DF91CF9176
:100A300008951F920F9200905F000F9211240F9360
:100A40002F933F934F935F936F937F938F939F93D6
:100A5000AF93BF93EF93FF93CF93DF93CDB7DEB701
:100A60008091840090918500A0918600B0918700CC
:100A70000197A109B1098093840090938500A09308
:100A80008600B09387008091900090919100892B0F
:100A9000C1F08091840090918500A0918600B09172
:100AA0008700892B8A2B8B2B61F400E021E043E047
:100AB00060E081E0E5DB8091900090919100FC0185
:100AC00009950000DF91CF91FF91EF91BF91AF9118
:100AD0009F918F917F916F915F914F913F912F9156
:100AE0000F910F9000925F000F901F9018951F922A
:100AF0000F9200905F000F9211240F932F933F935A
:100B00004F935F936F937F938F939F93AF93BF9315
:100B1000EF93FF93CF93DF93CDB7DEB780918C0037
:100B200090918D00892B61F000E021E043E060E0CE
:100B300081E0A6DB80918C0090918D00FC010995ED
:100B40000000DF91CF91FF91EF91BF91AF919F9105
:100B50008F917F916F915F914F913F912F910F9165
:100B60000F9000925F000F901F9018951F920F92A8
:100B700000905F000F9211240F932F933F934F9398
:100B80005F936F937F938F939F93AF93BF93EF93F5
:100B9000FF93CF93DF93CDB7DEB78091880090911C
:100BA0008900A0918A00B0918B000197A109B10939
:100BB0008093880090938900A0938A00B0938B0063
:100BC0008091920090919300892B91F08091880000
:100BD00090918900A0918A00B0918B00892B8A2B7B
:100BE0008B2B31F400E021E043E060E081E007DDA1
:100BF0000000DF91CF91FF91EF91BF91AF919F9155
:100C00008F917F916F915F914F913F912F910F91B4
:100C10000F9000925F000F901F9018951F920F92F7
:100C200000905F000F9211240F932F933F934F93E7
:100C30005F936F937F938F939F93AF93BF93EF9344
:100C4000FF93CF93DF93CDB7DEB780918E00909165
:100C50008F00892B61F080918E0090918F00FC01B4
:100C6000099500E021E043E060E081E0C8DC00009D
:100C7000DF91CF91FF91EF91BF91AF919F918F91B4
:100C80007F916F915F914F913F912F910F910F90B5
:100C900000925F000F901F901895CF93DF9300D0C4
:100CA0001F92CDB7DEB789836A834B8389E290E0D8
:100CB00023E3FC0120838BE290E02BE230E0F9019A
:100CC00020812D7FFC0120838981882F90E0813055
:100CD0009105C1F08230910541F1892BC9F58AE275
:100CE00090E02AE230E0F90120812061FC012083BC
:100CF0008AE290E02AE230E0F90120812860FC01DC
:100D0000208339C08AE290E02AE230E0F9012081B4
:100D10002F7EFC0120838AE290E02AE230E0F90194
:100D200020812860FC01208326C08AE290E02AE22C
:100D300030E0F90120812061FC0120838AE290E00B
:100D40002AE230E0F9012081277FFC01208313C0D3
:100D50008AE290E02AE230E0F90120812F7EFC0156
:100D600020838AE290E02AE230E0F9012081277FA7
:100D7000FC01208300008A81882F90E08630910555
:100D800019F00797A1F01DC08AE290E02AE230E056
:100D9000F90120812068FC0120838FE590E02FE598
:100DA00030E0F90120812068FC01208314C08AE230
:100DB00090E02AE230E0F90120812F77FC012083C6
:100DC0000AC08AE290E02AE230E0F90120812F7720
:100DD000FC01208300008B81882F90E084309105F6
:100DE00019F00597A1F01DC08AE290E02AE230E0F8
:100DF000F90120812064FC0120838FE590E02FE53C
:100E000030E0F90120812068FC01208314C08AE2CF
:100E100090E02AE230E0F90120812F7BFC01208361
:100E20000AC08AE290E02AE230E0F90120812F7BBB
:100E3000FC012083000080E490E020E430E0F90130
:100E400020812068FC01208380E490E020E430E0F1
:100E5000F90120812F7DFC01208380E490E020E4D3
:100E600030E0F90120812F7EFC0120838AE290E0AE
:100E70002AE230E0F90120812B7FFC01208380E40D
:100E800090E020E430E0F90120812460FC0120831F
:100E900080E490E020E430E0F90120812260FC0150
:100EA000208380E490E020E430E0F9012081286094
:100EB000FC01208380E490E020E430E0F90120810F
:100EC0002E7FFC01208300000F900F900F90DF9188
:100ED000CF910895CF93DF9300D01F92CDB7DEB7A7
:100EE00089837B836A8389818330B9F400008BE234
:100EF00090E0FC018081881F8827881F882F90E060
:100F000081709927892B99F38CE290E0FC01208174
:100F10008A819B81FC01208319C089818230B1F4D0
:100F200000008BE290E0FC018081829586958770BD
:100F3000882F90E081709927892B99F38CE290E0BB
:100F40002A813B81F9012081FC01208300000F9060
:100F50000F900F90DF91CF910895CF93DF9300D042
:100F6000CDB7DEB79A83898389819A819C012F5FEF
:100F70003F4F3A832983BC0182E0ACDF89819A81AB
:100F8000FC018081882381F700000F900F90DF9192
:100F9000CF910895CF93DF9300D0CDB7DEB79A837A
:100FA000898389819A8190939500809394000000B1
:100FB0000F900F90DF91CF9108951F920F920090A4
:100FC0005F000F9211242F933F934F935F936F9382
:100FD0007F938F939F93AF93BF93EF93FF93CF93A1
:100FE000DF931F92CDB7DEB78CE290E0FC018081E9
:100FF00089838091940090919500892B41F02091F4
:10100000940030919500CE010196F90109950000F8
:101010000F90DF91CF91FF91EF91BF91AF919F9191
:101020008F917F916F915F914F913F912F910F9091
:1010300000925F000F901F901895CF93DF9300D020
:101040001F92CDB7DEB789836A834B838B81882358
:1010500009F06CC08981882F90E08130910519F1E9
:10106000823091051CF4892B41F0CBC08230910570
:1010700081F1039709F443C0C4C08AE390E02AE3F6
:1010800030E0F9012081622F2A81422F50E021E0D7
:1010900030E002C0220F331F4A95E2F72095262345
:1010A000FC012083AEC087E390E027E330E0F90144
:1010B0002081622F2A81422F50E021E030E002C0DF
:1010C000220F331F4A95E2F720952623FC01208347
:1010D00098C084E390E024E330E0F9012081622F9E
:1010E0002A81422F50E021E030E002C0220F331F5E
:1010F0004A95E2F720952623FC01208382C081E3F4
:1011000090E021E330E0F9012081622F2A81422F13
:1011100050E021E030E002C0220F331F4A95E2F791
:1011200020952623FC01208300006BC08B81813039
:1011300009F067C08981882F90E08130910511F115
:10114000823091051CF4892B41F05BC082309105FF
:1011500071F1039709F440C054C08AE390E02AE398
:1011600030E0F9012081622F2A81422F50E021E0F6
:1011700030E002C0220F331F4A95E2F7262BFC0114
:1011800020833FC087E390E027E330E0F90120812E
:10119000622F2A81422F50E021E030E002C0220F6E
:1011A000331F4A95E2F7262BFC0120832AC084E3F3
:1011B00090E024E330E0F9012081622F2A81422F60
:1011C00050E021E030E002C0220F331F4A95E2F7E1
:1011D000262BFC01208315C081E390E021E330E061
:1011E000F9012081622F2A81422F50E021E030E076
:1011F00002C0220F331F4A95E2F7262BFC01208301
:10120000000000000F900F900F90DF91CF91089594
:10121000CF93DF9300D01F92CDB7DEB789836A8367
:101220004B838B81813009F068C08981882F90E0E1
:101230008130910511F1823091051CF4892B41F028
:10124000CBC08230910571F1039709F440C0C4C04E
:101250008BE390E02BE330E0F9012081622F2A81BB
:10126000422F50E021E030E002C0220F331F4A95A8
:10127000E2F7262BFC012083AFC088E390E028E34F
:1012800030E0F9012081622F2A81422F50E021E0D5
:1012900030E002C0220F331F4A95E2F7262BFC01F3
:1012A00020839AC085E390E025E330E0F9012081B6
:1012B000622F2A81422F50E021E030E002C0220F4D
:1012C000331F4A95E2F7262BFC01208385C082E379
:1012D00090E022E330E0F9012081622F2A81422F41
:1012E00050E021E030E002C0220F331F4A95E2F7C0
:1012F000262BFC01208300006FC08B81882309F01E
:101300006BC08981882F90E08130910519F182307E
:1013100091051CF4892B41F05FC08230910581F169
:10132000039709F443C058C08BE390E02BE330E00F
:10133000F9012081622F2A81422F50E021E030E024
:1013400002C0220F331F4A95E2F720952623FC01A5
:10135000208342C088E390E028E330E0F901208157
:10136000622F2A81422F50E021E030E002C0220F9C
:10137000331F4A95E2F720952623FC0120832CC0D9
:1013800085E390E025E330E0F9012081622F2A8196
:10139000422F50E021E030E002C0220F331F4A9577
:1013A000E2F720952623FC01208316C082E390E01B
:1013B00022E330E0F9012081622F2A81422F50E0A0
:1013C00021E030E002C0220F331F4A95E2F720955A
:1013D0002623FC012083000000000F900F900F9047
:1013E000DF91CF910895CF93DF9300D000D0CDB798
:1013F000DEB789836A835C834B838981882F90E081
:101400008130910511F1823091051CF4892B41F056
:101410005BC08230910571F1039709F440C054C05C
:1014200089E390E0FC018081882F90E02A81222FBF
:1014300030E002C0959587952A95E2F7282F217014
:101440008B819C81FC0120833FC086E390E0FC01FE
:101450008081882F90E02A81222F30E002C095956C
:1014600087952A95E2F7282F21708B819C81FC01BA
:1014700020832AC083E390E0FC018081882F90E0E4
:101480002A81222F30E002C0959587952A95E2F7B0
:10149000282F21708B819C81FC01208315C080E363
:1014A00090E0FC018081882F90E02A81222F30E09B
:1014B00002C0959587952A95E2F7282F21708B8198
:1014C0009C81FC012083000000000F900F900F9082
:1014D0000F90DF91CF910895CF93DF93CDB7DEB713
:1014E00012D0A5D00000809196008823E1F380916E
:1014F00096008133B1F790D0000042D08823E9F7FD
:1015000010929600EECFCF93DF93CDB7DEB773D0B6
:101510002BD046D045E066E080E0BFDB85E99AE06D
:1015200039DD0000DF91CF910895CF93DF9300D094
:10153000CDB7DEB79A83898380E690E00EDD89819E
:101540009A81BC0182E0C6DC89819A81FC0180819C
:1015500037D0809396008DE690E0FFDC00000F907E
:101560000F90DF91CF910895CF93DF93CDB7DEB782
:1015700040E063E080E061DD0000DF91CF910895FD
:10158000CF93DF931F92CDB7DEB7CE010196AC01AA
:1015900063E080E028DF89810F90DF91CF9108958B
:1015A000CF93DF93CDB7DEB763E081E00E944800C0
:1015B00041E064E080E041DD0000DF91CF910895DB
:1015C000CF93DF931F92CDB7DEB7898341E064E00C
:1015D00080E01EDECE0101960E94DE0040E064E065
:1015E00080E016DECE0101960E94DE0089810F9018
:1015F000DF91CF9108950F93CF93DF93CDB7DEB7EF
:1016000003E021E043E06FEF84E00E94400100002E
:10161000DF91CF910F910895CF93DF93CDB7DEB7D0
:1016200062E680E0BFD90000DF91CF910895CF93AB
:10163000DF93CDB7DEB761E380E0B4D90000DF917E
:10164000CF910895A1E21A2EAA1BBB1BFD010DC06C
:10165000AA1FBB1FEE1FFF1FA217B307E407F50762
:1016600020F0A21BB30BE40BF50B661F771F881F3E
:10167000991F1A9469F760957095809590959B01D4
:10168000AC01BD01CF01089509D0A59F900DB49F75
:10169000900DA49F800D911D11240895A29FB0016B
:1016A000B39FC001A39F700D811D1124911DB29F96
:0E16B000700D811D1124911D0895F894FFCF37
:1016BE004944205363616E6564203D20000D2D2D3D
:1016CE002D2D2D2D2D2D2D2D2D2D2D2D2D2D2D2D3C
:0216DE000D00FD
:00000001FF
